{
  "contractName": "EnergyConsumption",
  "abi": [
    {
      "constant": true,
      "inputs": [
        {
          "name": "",
          "type": "uint256"
        }
      ],
      "name": "consAccntList",
      "outputs": [
        {
          "name": "",
          "type": "address"
        }
      ],
      "payable": false,
      "stateMutability": "view",
      "type": "function"
    },
    {
      "inputs": [],
      "payable": false,
      "stateMutability": "nonpayable",
      "type": "constructor"
    },
    {
      "anonymous": false,
      "inputs": [
        {
          "indexed": false,
          "name": "pvAddr",
          "type": "address"
        },
        {
          "indexed": false,
          "name": "owner",
          "type": "string"
        },
        {
          "indexed": false,
          "name": "deviceType",
          "type": "string"
        },
        {
          "indexed": false,
          "name": "peakPowerPos",
          "type": "uint32"
        },
        {
          "indexed": false,
          "name": "peakPowerNeg",
          "type": "uint32"
        },
        {
          "indexed": false,
          "name": "latitude",
          "type": "uint32"
        },
        {
          "indexed": false,
          "name": "longitude",
          "type": "uint32"
        },
        {
          "indexed": false,
          "name": "voltageLevel",
          "type": "uint32"
        },
        {
          "indexed": false,
          "name": "location",
          "type": "string"
        },
        {
          "indexed": false,
          "name": "installDate",
          "type": "string"
        }
      ],
      "name": "ConsumerRegs",
      "type": "event"
    },
    {
      "anonymous": false,
      "inputs": [
        {
          "indexed": false,
          "name": "oliAddr",
          "type": "address"
        },
        {
          "indexed": false,
          "name": "eTime",
          "type": "uint256"
        },
        {
          "indexed": false,
          "name": "enerAmount",
          "type": "uint32"
        }
      ],
      "name": "EnerConsumptionEvent",
      "type": "event"
    },
    {
      "anonymous": false,
      "inputs": [
        {
          "indexed": false,
          "name": "oliAddr",
          "type": "address"
        },
        {
          "indexed": false,
          "name": "txTime",
          "type": "uint256[]"
        },
        {
          "indexed": false,
          "name": "txValue",
          "type": "uint32[]"
        },
        {
          "indexed": false,
          "name": "blockNumber",
          "type": "uint256[]"
        },
        {
          "indexed": false,
          "name": "blockHash",
          "type": "bytes32[]"
        },
        {
          "indexed": false,
          "name": "txGasPrice",
          "type": "uint256[]"
        }
      ],
      "name": "ConsTransactionEvent",
      "type": "event"
    },
    {
      "constant": false,
      "inputs": [
        {
          "name": "_owner",
          "type": "string"
        },
        {
          "name": "_deviceType",
          "type": "string"
        },
        {
          "name": "_peakPowerPos",
          "type": "uint32"
        },
        {
          "name": "_peakPowerNeg",
          "type": "uint32"
        },
        {
          "name": "_latitude",
          "type": "uint32"
        },
        {
          "name": "_longitude",
          "type": "uint32"
        },
        {
          "name": "_voltageLevel",
          "type": "uint32"
        },
        {
          "name": "_location",
          "type": "string"
        },
        {
          "name": "_installDate",
          "type": "string"
        }
      ],
      "name": "setConsumer",
      "outputs": [],
      "payable": false,
      "stateMutability": "nonpayable",
      "type": "function"
    },
    {
      "constant": true,
      "inputs": [
        {
          "name": "consumerAddr",
          "type": "address"
        }
      ],
      "name": "consAccntsArr",
      "outputs": [
        {
          "name": "",
          "type": "bool"
        }
      ],
      "payable": false,
      "stateMutability": "view",
      "type": "function"
    },
    {
      "constant": true,
      "inputs": [],
      "name": "getConsumer",
      "outputs": [
        {
          "name": "",
          "type": "address"
        },
        {
          "name": "",
          "type": "string"
        },
        {
          "name": "",
          "type": "string"
        },
        {
          "name": "",
          "type": "uint32"
        },
        {
          "name": "",
          "type": "uint32"
        },
        {
          "name": "",
          "type": "uint32"
        },
        {
          "name": "",
          "type": "uint32"
        },
        {
          "name": "",
          "type": "uint32"
        },
        {
          "name": "",
          "type": "string"
        },
        {
          "name": "",
          "type": "string"
        }
      ],
      "payable": false,
      "stateMutability": "view",
      "type": "function"
    },
    {
      "constant": true,
      "inputs": [
        {
          "name": "_consAccntAddr",
          "type": "address"
        }
      ],
      "name": "getConsAccntDetails",
      "outputs": [
        {
          "name": "",
          "type": "string"
        },
        {
          "name": "",
          "type": "string"
        },
        {
          "name": "",
          "type": "uint32"
        },
        {
          "name": "",
          "type": "string"
        },
        {
          "name": "",
          "type": "uint32"
        },
        {
          "name": "",
          "type": "uint32"
        },
        {
          "name": "",
          "type": "string"
        }
      ],
      "payable": false,
      "stateMutability": "view",
      "type": "function"
    },
    {
      "constant": true,
      "inputs": [],
      "name": "getConsAccntsList",
      "outputs": [
        {
          "name": "",
          "type": "address[]"
        }
      ],
      "payable": false,
      "stateMutability": "view",
      "type": "function"
    },
    {
      "constant": true,
      "inputs": [],
      "name": "countConsumers",
      "outputs": [
        {
          "name": "",
          "type": "uint256"
        }
      ],
      "payable": false,
      "stateMutability": "view",
      "type": "function"
    },
    {
      "constant": false,
      "inputs": [
        {
          "name": "_enerValue",
          "type": "uint32"
        }
      ],
      "name": "setEnerConsumption",
      "outputs": [],
      "payable": false,
      "stateMutability": "nonpayable",
      "type": "function"
    },
    {
      "constant": true,
      "inputs": [],
      "name": "getEnerConsumption",
      "outputs": [
        {
          "name": "",
          "type": "address"
        },
        {
          "name": "",
          "type": "uint256"
        },
        {
          "name": "",
          "type": "uint32"
        }
      ],
      "payable": false,
      "stateMutability": "view",
      "type": "function"
    },
    {
      "constant": true,
      "inputs": [
        {
          "name": "_consAccntAddr",
          "type": "address"
        }
      ],
      "name": "getConsEnerConsumption",
      "outputs": [
        {
          "name": "",
          "type": "address"
        },
        {
          "name": "",
          "type": "uint256[]"
        },
        {
          "name": "",
          "type": "uint32[]"
        },
        {
          "name": "",
          "type": "uint256[]"
        },
        {
          "name": "",
          "type": "bytes32[]"
        },
        {
          "name": "",
          "type": "uint256[]"
        }
      ],
      "payable": false,
      "stateMutability": "view",
      "type": "function"
    },
    {
      "constant": true,
      "inputs": [
        {
          "name": "_consAccntAddr",
          "type": "address"
        }
      ],
      "name": "getConsBalance",
      "outputs": [
        {
          "name": "",
          "type": "uint256"
        }
      ],
      "payable": false,
      "stateMutability": "view",
      "type": "function"
    }
  ],
  "bytecode": "0x606060405234156200001057600080fd5b600580548060010182816200002691906200007b565b9160005260206000209001600080909190916101000a81548173ffffffffffffffffffffffffffffffffffffffff021916908373ffffffffffffffffffffffffffffffffffffffff16021790555050620000d2565b815481835581811511620000a557818360005260206000209182019101620000a49190620000aa565b5b505050565b620000cf91905b80821115620000cb576000816000905550600101620000b1565b5090565b90565b61255780620000e26000396000f3006060604052600436106100af576000357c0100000000000000000000000000000000000000000000000000000000900463ffffffff16806318cbdce3146100b457806319bccb9c14610117578063203aec331461018157806324a0d6bc146101f05780636c07681f14610241578063739ae785146104a55780637ed8917f146104ce5780639926188f1461051b578063a64062fc14610544578063b1b79dbf146106b5578063fd3c13ab146108e4575b600080fd5b34156100bf57600080fd5b6100d56004808035906020019091905050610ac5565b604051808273ffffffffffffffffffffffffffffffffffffffff1673ffffffffffffffffffffffffffffffffffffffff16815260200191505060405180910390f35b341561012257600080fd5b61012a610b04565b6040518080602001828103825283818151815260200191508051906020019060200280838360005b8381101561016d578082015181840152602081019050610152565b505050509050019250505060405180910390f35b341561018c57600080fd5b610194610b98565b604051808473ffffffffffffffffffffffffffffffffffffffff1673ffffffffffffffffffffffffffffffffffffffff1681526020018381526020018263ffffffff1663ffffffff168152602001935050505060405180910390f35b34156101fb57600080fd5b610227600480803573ffffffffffffffffffffffffffffffffffffffff16906020019091905050610c3f565b604051808215151515815260200191505060405180910390f35b341561024c57600080fd5b610254610cbe565b604051808b73ffffffffffffffffffffffffffffffffffffffff1673ffffffffffffffffffffffffffffffffffffffff16815260200180602001806020018a63ffffffff1663ffffffff1681526020018963ffffffff1663ffffffff1681526020018863ffffffff1663ffffffff1681526020018763ffffffff1663ffffffff1681526020018663ffffffff1663ffffffff168152602001806020018060200185810385528e818151815260200191508051906020019080838360005b8381101561032c578082015181840152602081019050610311565b50505050905090810190601f1680156103595780820380516001836020036101000a031916815260200191505b5085810384528d818151815260200191508051906020019080838360005b83811015610392578082015181840152602081019050610377565b50505050905090810190601f1680156103bf5780820380516001836020036101000a031916815260200191505b50858103835287818151815260200191508051906020019080838360005b838110156103f85780820151818401526020810190506103dd565b50505050905090810190601f1680156104255780820380516001836020036101000a031916815260200191505b50858103825286818151815260200191508051906020019080838360005b8381101561045e578082015181840152602081019050610443565b50505050905090810190601f16801561048b5780820380516001836020036101000a031916815260200191505b509e50505050505050505050505050505060405180910390f35b34156104b057600080fd5b6104b8611217565b6040518082815260200191505060405180910390f35b34156104d957600080fd5b610505600480803573ffffffffffffffffffffffffffffffffffffffff16906020019091905050611227565b6040518082815260200191505060405180910390f35b341561052657600080fd5b610542600480803563ffffffff16906020019091905050611270565b005b341561054f57600080fd5b6106b3600480803590602001908201803590602001908080601f0160208091040260200160405190810160405280939291908181526020018383808284378201915050505050509190803590602001908201803590602001908080601f0160208091040260200160405190810160405280939291908181526020018383808284378201915050505050509190803563ffffffff1690602001909190803563ffffffff1690602001909190803563ffffffff1690602001909190803563ffffffff1690602001909190803563ffffffff1690602001909190803590602001908201803590602001908080601f0160208091040260200160405190810160405280939291908181526020018383808284378201915050505050509190803590602001908201803590602001908080601f01602080910402602001604051908101604052809392919081815260200183838082843782019150505050505091905050611626565b005b34156106c057600080fd5b6106ec600480803573ffffffffffffffffffffffffffffffffffffffff16906020019091905050611b43565b6040518080602001806020018863ffffffff1663ffffffff168152602001806020018763ffffffff1663ffffffff1681526020018663ffffffff1663ffffffff1681526020018060200185810385528c818151815260200191508051906020019080838360005b8381101561076e578082015181840152602081019050610753565b50505050905090810190601f16801561079b5780820380516001836020036101000a031916815260200191505b5085810384528b818151815260200191508051906020019080838360005b838110156107d45780820151818401526020810190506107b9565b50505050905090810190601f1680156108015780820380516001836020036101000a031916815260200191505b50858103835289818151815260200191508051906020019080838360005b8381101561083a57808201518184015260208101905061081f565b50505050905090810190601f1680156108675780820380516001836020036101000a031916815260200191505b50858103825286818151815260200191508051906020019080838360005b838110156108a0578082015181840152602081019050610885565b50505050905090810190601f1680156108cd5780820380516001836020036101000a031916815260200191505b509b50505050505050505050505060405180910390f35b34156108ef57600080fd5b61091b600480803573ffffffffffffffffffffffffffffffffffffffff16906020019091905050611feb565b604051808773ffffffffffffffffffffffffffffffffffffffff1673ffffffffffffffffffffffffffffffffffffffff168152602001806020018060200180602001806020018060200186810386528b818151815260200191508051906020019060200280838360005b838110156109a0578082015181840152602081019050610985565b5050505090500186810385528a818151815260200191508051906020019060200280838360005b838110156109e25780820151818401526020810190506109c7565b50505050905001868103845289818151815260200191508051906020019060200280838360005b83811015610a24578082015181840152602081019050610a09565b50505050905001868103835288818151815260200191508051906020019060200280838360005b83811015610a66578082015181840152602081019050610a4b565b50505050905001868103825287818151815260200191508051906020019060200280838360005b83811015610aa8578082015181840152602081019050610a8d565b505050509050019b50505050505050505050505060405180910390f35b600581815481101515610ad457fe5b90600052602060002090016000915054906101000a900473ffffffffffffffffffffffffffffffffffffffff1681565b610b0c61233f565b6005805480602002602001604051908101604052809291908181526020018280548015610b8e57602002820191906000526020600020905b8160009054906101000a900473ffffffffffffffffffffffffffffffffffffffff1673ffffffffffffffffffffffffffffffffffffffff1681526020019060010190808311610b44575b5050505050905090565b600080600032600260003273ffffffffffffffffffffffffffffffffffffffff1673ffffffffffffffffffffffffffffffffffffffff16815260200190815260200160002060000154600260003273ffffffffffffffffffffffffffffffffffffffff1673ffffffffffffffffffffffffffffffffffffffff16815260200190815260200160002060010160009054906101000a900463ffffffff16925092509250909192565b6000808273ffffffffffffffffffffffffffffffffffffffff1614158015610ca657506000600160008473ffffffffffffffffffffffffffffffffffffffff1673ffffffffffffffffffffffffffffffffffffffff16815260200190815260200160002054115b15610cb45760019050610cb9565b600090505b919050565b6000610cc8612353565b610cd0612353565b6000806000806000610ce0612353565b610ce8612353565b326000803273ffffffffffffffffffffffffffffffffffffffff1673ffffffffffffffffffffffffffffffffffffffff1681526020019081526020016000206000016000803273ffffffffffffffffffffffffffffffffffffffff1673ffffffffffffffffffffffffffffffffffffffff1681526020019081526020016000206001016000803273ffffffffffffffffffffffffffffffffffffffff1673ffffffffffffffffffffffffffffffffffffffff16815260200190815260200160002060020160009054906101000a900463ffffffff166000803273ffffffffffffffffffffffffffffffffffffffff1673ffffffffffffffffffffffffffffffffffffffff16815260200190815260200160002060020160049054906101000a900463ffffffff166000803273ffffffffffffffffffffffffffffffffffffffff1673ffffffffffffffffffffffffffffffffffffffff16815260200190815260200160002060020160089054906101000a900463ffffffff166000803273ffffffffffffffffffffffffffffffffffffffff1673ffffffffffffffffffffffffffffffffffffffff168152602001908152602001600020600201600c9054906101000a900463ffffffff166000803273ffffffffffffffffffffffffffffffffffffffff1673ffffffffffffffffffffffffffffffffffffffff16815260200190815260200160002060020160109054906101000a900463ffffffff166000803273ffffffffffffffffffffffffffffffffffffffff1673ffffffffffffffffffffffffffffffffffffffff1681526020019081526020016000206003016000803273ffffffffffffffffffffffffffffffffffffffff1673ffffffffffffffffffffffffffffffffffffffff168152602001908152602001600020600401888054600181600116156101000203166002900480601f01602080910402602001604051908101604052809291908181526020018280546001816001161561010002031660029004801561101c5780601f10610ff15761010080835404028352916020019161101c565b820191906000526020600020905b815481529060010190602001808311610fff57829003601f168201915b50505050509850878054600181600116156101000203166002900480601f0160208091040260200160405190810160405280929190818152602001828054600181600116156101000203166002900480156110b85780601f1061108d576101008083540402835291602001916110b8565b820191906000526020600020905b81548152906001019060200180831161109b57829003601f168201915b50505050509750818054600181600116156101000203166002900480601f0160208091040260200160405190810160405280929190818152602001828054600181600116156101000203166002900480156111545780601f1061112957610100808354040283529160200191611154565b820191906000526020600020905b81548152906001019060200180831161113757829003601f168201915b50505050509150808054600181600116156101000203166002900480601f0160208091040260200160405190810160405280929190818152602001828054600181600116156101000203166002900480156111f05780601f106111c5576101008083540402835291602001916111f0565b820191906000526020600020905b8154815290600101906020018083116111d357829003601f168201915b50505050509050995099509950995099509950995099509950995090919293949596979899565b6000600160058054905003905090565b6000600360008373ffffffffffffffffffffffffffffffffffffffff1673ffffffffffffffffffffffffffffffffffffffff168152602001908152602001600020549050919050565b61127932610c3f565b156115a45760408051908101604052804281526020018263ffffffff16815250600260003273ffffffffffffffffffffffffffffffffffffffff1673ffffffffffffffffffffffffffffffffffffffff1681526020019081526020016000206000820151816000015560208201518160010160006101000a81548163ffffffff021916908363ffffffff1602179055509050508063ffffffff16600360003273ffffffffffffffffffffffffffffffffffffffff1673ffffffffffffffffffffffffffffffffffffffff168152602001908152602001600020600082825401925050819055506001600460003273ffffffffffffffffffffffffffffffffffffffff1673ffffffffffffffffffffffffffffffffffffffff16815260200190815260200160002060000180548060010182816113b59190612367565b916000526020600020900160004290919091505550506001600460003273ffffffffffffffffffffffffffffffffffffffff1673ffffffffffffffffffffffffffffffffffffffff16815260200190815260200160002060010180548060010182816114219190612393565b916000526020600020906008918282040191900660040284909190916101000a81548163ffffffff021916908363ffffffff1602179055505050600460003273ffffffffffffffffffffffffffffffffffffffff1673ffffffffffffffffffffffffffffffffffffffff16815260200190815260200160002060020180548060010182816114af9190612367565b916000526020600020900160004390919091505550600460003273ffffffffffffffffffffffffffffffffffffffff1673ffffffffffffffffffffffffffffffffffffffff168152602001908152602001600020600301805480600101828161151891906123cd565b916000526020600020900160006001430340909190915090600019169055506001600460003273ffffffffffffffffffffffffffffffffffffffff1673ffffffffffffffffffffffffffffffffffffffff168152602001908152602001600020600401805480600101828161158d9190612367565b916000526020600020900160003a90919091505550505b7f7357384fea585bd35b5329e6fe91e41971d0236bd93c74f999535200a0a93a30324283604051808473ffffffffffffffffffffffffffffffffffffffff1673ffffffffffffffffffffffffffffffffffffffff1681526020018381526020018263ffffffff1663ffffffff168152602001935050505060405180910390a150565b61162f32610c3f565b1515611b3857600580549050600160003273ffffffffffffffffffffffffffffffffffffffff1673ffffffffffffffffffffffffffffffffffffffff16815260200190815260200160002081905550610120604051908101604052808a81526020018981526020018863ffffffff1681526020018763ffffffff1681526020018663ffffffff1681526020018563ffffffff1681526020018463ffffffff168152602001838152602001828152506000803273ffffffffffffffffffffffffffffffffffffffff1673ffffffffffffffffffffffffffffffffffffffff16815260200190815260200160002060008201518160000190805190602001906117379291906123f9565b5060208201518160010190805190602001906117549291906123f9565b5060408201518160020160006101000a81548163ffffffff021916908363ffffffff16021790555060608201518160020160046101000a81548163ffffffff021916908363ffffffff16021790555060808201518160020160086101000a81548163ffffffff021916908363ffffffff16021790555060a082015181600201600c6101000a81548163ffffffff021916908363ffffffff16021790555060c08201518160020160106101000a81548163ffffffff021916908363ffffffff16021790555060e08201518160030190805190602001906118349291906123f9565b506101008201518160040190805190602001906118529291906123f9565b5090505060016005805480600101828161186c9190612479565b9160005260206000209001600032909190916101000a81548173ffffffffffffffffffffffffffffffffffffffff021916908373ffffffffffffffffffffffffffffffffffffffff16021790555050507f71537b70bbd67fee09ad13f9c4280471a83004e2e7d0a3f0a9817677cd1cffd5328a8a8a8a8a8a8a8a8a604051808b73ffffffffffffffffffffffffffffffffffffffff1673ffffffffffffffffffffffffffffffffffffffff16815260200180602001806020018a63ffffffff1663ffffffff1681526020018963ffffffff1663ffffffff1681526020018863ffffffff1663ffffffff1681526020018763ffffffff1663ffffffff1681526020018663ffffffff1663ffffffff168152602001806020018060200185810385528e818151815260200191508051906020019080838360005b838110156119bf5780820151818401526020810190506119a4565b50505050905090810190601f1680156119ec5780820380516001836020036101000a031916815260200191505b5085810384528d818151815260200191508051906020019080838360005b83811015611a25578082015181840152602081019050611a0a565b50505050905090810190601f168015611a525780820380516001836020036101000a031916815260200191505b50858103835287818151815260200191508051906020019080838360005b83811015611a8b578082015181840152602081019050611a70565b50505050905090810190601f168015611ab85780820380516001836020036101000a031916815260200191505b50858103825286818151815260200191508051906020019080838360005b83811015611af1578082015181840152602081019050611ad6565b50505050905090810190601f168015611b1e5780820380516001836020036101000a031916815260200191505b509e50505050505050505050505050505060405180910390a15b505050505050505050565b611b4b612353565b611b53612353565b6000611b5d612353565b600080611b68612353565b6000808973ffffffffffffffffffffffffffffffffffffffff1673ffffffffffffffffffffffffffffffffffffffff1681526020019081526020016000206000016000808a73ffffffffffffffffffffffffffffffffffffffff1673ffffffffffffffffffffffffffffffffffffffff1681526020019081526020016000206001016000808b73ffffffffffffffffffffffffffffffffffffffff1673ffffffffffffffffffffffffffffffffffffffff16815260200190815260200160002060020160009054906101000a900463ffffffff166000808c73ffffffffffffffffffffffffffffffffffffffff1673ffffffffffffffffffffffffffffffffffffffff1681526020019081526020016000206003016000808d73ffffffffffffffffffffffffffffffffffffffff1673ffffffffffffffffffffffffffffffffffffffff16815260200190815260200160002060020160089054906101000a900463ffffffff166000808e73ffffffffffffffffffffffffffffffffffffffff1673ffffffffffffffffffffffffffffffffffffffff168152602001908152602001600020600201600c9054906101000a900463ffffffff166000808f73ffffffffffffffffffffffffffffffffffffffff1673ffffffffffffffffffffffffffffffffffffffff168152602001908152602001600020600401868054600181600116156101000203166002900480601f016020809104026020016040519081016040528092919081815260200182805460018160011615610100020316600290048015611df75780601f10611dcc57610100808354040283529160200191611df7565b820191906000526020600020905b815481529060010190602001808311611dda57829003601f168201915b50505050509650858054600181600116156101000203166002900480601f016020809104026020016040519081016040528092919081815260200182805460018160011615610100020316600290048015611e935780601f10611e6857610100808354040283529160200191611e93565b820191906000526020600020905b815481529060010190602001808311611e7657829003601f168201915b50505050509550838054600181600116156101000203166002900480601f016020809104026020016040519081016040528092919081815260200182805460018160011615610100020316600290048015611f2f5780601f10611f0457610100808354040283529160200191611f2f565b820191906000526020600020905b815481529060010190602001808311611f1257829003601f168201915b50505050509350808054600181600116156101000203166002900480601f016020809104026020016040519081016040528092919081815260200182805460018160011615610100020316600290048015611fcb5780601f10611fa057610100808354040283529160200191611fcb565b820191906000526020600020905b815481529060010190602001808311611fae57829003601f168201915b505050505090509650965096509650965096509650919395979092949650565b6000611ff56124a5565b611ffd6124b9565b6120056124a5565b61200d6124cd565b6120156124a5565b86600460008973ffffffffffffffffffffffffffffffffffffffff1673ffffffffffffffffffffffffffffffffffffffff168152602001908152602001600020600001600460008a73ffffffffffffffffffffffffffffffffffffffff1673ffffffffffffffffffffffffffffffffffffffff168152602001908152602001600020600101600460008b73ffffffffffffffffffffffffffffffffffffffff1673ffffffffffffffffffffffffffffffffffffffff168152602001908152602001600020600201600460008c73ffffffffffffffffffffffffffffffffffffffff1673ffffffffffffffffffffffffffffffffffffffff168152602001908152602001600020600301600460008d73ffffffffffffffffffffffffffffffffffffffff1673ffffffffffffffffffffffffffffffffffffffff168152602001908152602001600020600401848054806020026020016040519081016040528092919081815260200182805480156121ab57602002820191906000526020600020905b815481526020019060010190808311612197575b505050505094508380548060200260200160405190810160405280929190818152602001828054801561222957602002820191906000526020600020906000905b82829054906101000a900463ffffffff1663ffffffff16815260200190600401906020826003010492830192600103820291508084116121ec5790505b505050505093508280548060200260200160405190810160405280929190818152602001828054801561227b57602002820191906000526020600020905b815481526020019060010190808311612267575b50505050509250818054806020026020016040519081016040528092919081815260200182805480156122d157602002820191906000526020600020905b815460001916815260200190600101908083116122b9575b505050505091508080548060200260200160405190810160405280929190818152602001828054801561232357602002820191906000526020600020905b81548152602001906001019080831161230f575b5050505050905095509550955095509550955091939550919395565b602060405190810160405280600081525090565b602060405190810160405280600081525090565b81548183558181151161238e5781836000526020600020918201910161238d91906124e1565b5b505050565b8154818355818115116123c85760070160089004816007016008900483600052602060002091820191016123c791906124e1565b5b505050565b8154818355818115116123f4578183600052602060002091820191016123f39190612506565b5b505050565b828054600181600116156101000203166002900490600052602060002090601f016020900481019282601f1061243a57805160ff1916838001178555612468565b82800160010185558215612468579182015b8281111561246757825182559160200191906001019061244c565b5b50905061247591906124e1565b5090565b8154818355818115116124a05781836000526020600020918201910161249f91906124e1565b5b505050565b602060405190810160405280600081525090565b602060405190810160405280600081525090565b602060405190810160405280600081525090565b61250391905b808211156124ff5760008160009055506001016124e7565b5090565b90565b61252891905b8082111561252457600081600090555060010161250c565b5090565b905600a165627a7a723058201f8e0bf2a92a2243933bfa8c4c6e7fbfc9cbc34c3c68d20f9e063e01c49f9d760029",
  "source": "pragma solidity ^0.4.19;\n\ncontract EnergyProduction {\n\n  struct Producer {\n    string owner;\n    string deviceType;\n    uint32 peakPowerPos;\n    uint32 peakPowerNeg;\n    uint32 latitude;\n    uint32 longitude;\n    uint32 voltageLevel;\n    string location;\n    string installDate;\n  }\n\n  struct EnerProduction {\n    uint enerTime;\n    uint32 enerValue;\n  }\n\n  struct ProTransaction {\n    uint[] txTime;\n    uint32[] txValue;\n    uint[] blockNumber;\n    bytes32[] blockHash;\n    uint[] txGasPrice;\n  }\n\n  event ProducerRegs(address pvAddr, string owner, string deviceType, uint32 peakPowerPos, uint32 peakPowerNeg, uint32 latitude, uint32 longitude, uint32 voltageLevel, string location, string installDate);\n  event EnerProductionEvent(address oliAddr, uint256 eTime, uint32 enerAmount);\n  event ProTransactionEvent(address oliAddr, uint[] txTime, uint32[] txValue, uint[] blockNumber, bytes32[] blockHash, uint[] txGasPrice);\n\n  mapping (address => Producer) producers;\n  mapping (address => uint) accntIndexArr;\n  mapping (address => EnerProduction) enerProductions;\n  mapping (address => uint) proBalance;\n  mapping (address => ProTransaction) transactions;\n\n  address[] public proAccntList;\n\n  function EnergyProduction() {\n    // position 0 flag invalid address\n    proAccntList.push(0x0);\n  }\n\n  /*\n  * Registration\n  */\n\n  function setProducer(string _owner, string _deviceType, uint32 _peakPowerPos, uint32 _peakPowerNeg, uint32 _latitude, uint32 _longitude, uint32 _voltageLevel, string _location, string _installDate) {\n    if (!proAccntsArr(tx.origin)){\n      // mapping address to index\n      accntIndexArr[tx.origin] = proAccntList.length;\n      producers[tx.origin] = Producer(_owner, _deviceType, _peakPowerPos, _peakPowerNeg, _latitude, _longitude, _voltageLevel, _location, _installDate);\n      proAccntList.push(tx.origin) -1;\n      ProducerRegs(tx.origin, _owner, _deviceType, _peakPowerPos, _peakPowerNeg, _latitude, _longitude, _voltageLevel, _location, _installDate);\n    }\n  }\n\n  // check if an address is already registered or not\n  function proAccntsArr(address producerAddr) constant returns (bool) {\n    // address 0x0 is not valid if pos 0 is not in the array\n    if (producerAddr != 0x0 && accntIndexArr[producerAddr] > 0) {\n      return true;\n    }\n    return false;\n  }\n\n  // getting registration details\n  function getProducer() constant returns (address, string, string, uint32, uint32, uint32, uint32, uint32, string, string){\n    return (tx.origin, producers[tx.origin].owner, producers[tx.origin].deviceType, producers[tx.origin].peakPowerPos, producers[tx.origin].peakPowerNeg, producers[tx.origin].latitude, producers[tx.origin].longitude, producers[tx.origin].voltageLevel, producers[tx.origin].location, producers[tx.origin].installDate);\n  }\n\n  // get registation details for individual accounts\n  function getProAccntDetails(address _proAccntAddr) constant returns (string, string, uint32, string, uint32, uint32, string){\n    return (producers[_proAccntAddr].owner, producers[_proAccntAddr].deviceType, producers[_proAccntAddr].peakPowerPos, producers[_proAccntAddr].location, producers[_proAccntAddr].latitude, producers[_proAccntAddr].longitude, producers[_proAccntAddr].installDate);\n  }\n\n  // producer accounts list\n  function getProAccntsList() constant returns (address[]) {\n    return proAccntList;\n  }\n\n  // count for producer accounts\n  function countProducers() constant returns (uint) {\n    return (proAccntList.length) - 1;\n  }\n\n  /*\n  * Energy mapping setup\n  */\n\n  // getting energy time and amount\n  function setEnerProduction(uint32 _enerValue) {\n    // check if producer already exist\n    if (proAccntsArr(tx.origin)){\n      enerProductions[tx.origin] = EnerProduction(now, _enerValue);\n\n      // total energy balance\n      proBalance[tx.origin] += _enerValue;\n\n      // indidual accounts transaction history\n      transactions[tx.origin].txTime.push(now) -1;\n      transactions[tx.origin].txValue.push(_enerValue) -1;\n      transactions[tx.origin].blockNumber.push(block.number);\n      transactions[tx.origin].blockHash.push(block.blockhash(block.number -1));\n      transactions[tx.origin].txGasPrice.push(tx.gasprice) -1;\n    }\n\n    EnerProductionEvent(tx.origin, now, _enerValue);\n\n  }\n\n  function getEnerProduction()constant returns(address, uint, uint32){\n    return (tx.origin, enerProductions[tx.origin].enerTime, enerProductions[tx.origin].enerValue);\n  }\n\n  // getting energy production details for individual accounts\n\n  function getProEnerProduction(address _proAccntAddr)constant returns (address, uint[], uint32[], uint[], bytes32[], uint[]){\n    return (_proAccntAddr, transactions[_proAccntAddr].txTime, transactions[_proAccntAddr].txValue, transactions[_proAccntAddr].blockNumber, transactions[_proAccntAddr].blockHash, transactions[_proAccntAddr].txGasPrice);\n  }\n\n  // retrieving individula producer total amount of energy produced\n\n  function getProBalance(address _proAccntAddr)constant returns (uint){\n    return (proBalance[_proAccntAddr]);\n  }\n\n}\n\npragma solidity ^0.4.19;\n\ncontract EnergyConsumption {\n\n  struct Consumer {\n    string owner;\n    string deviceType;\n    uint32 peakPowerPos;\n    uint32 peakPowerNeg;\n    uint32 latitude;\n    uint32 longitude;\n    uint32 voltageLevel;\n    string location;\n    string installDate;\n  }\n\n  struct EnerConsumption {\n    uint enerTime;\n    uint32 enerValue;\n  }\n\n  struct ConsTransaction {\n    uint[] txTime;\n    uint32[] txValue;\n    uint[] blockNumber;\n    bytes32[] blockHash;\n    uint[] txGasPrice;\n  }\n\n  event ConsumerRegs(address pvAddr, string owner, string deviceType, uint32 peakPowerPos, uint32 peakPowerNeg, uint32 latitude, uint32 longitude, uint32 voltageLevel, string location, string installDate);\n  event EnerConsumptionEvent(address oliAddr, uint256 eTime, uint32 enerAmount);\n  event ConsTransactionEvent(address oliAddr, uint[] txTime, uint32[] txValue, uint[] blockNumber, bytes32[] blockHash, uint[] txGasPrice);\n\n  mapping (address => Consumer) consumers;\n  mapping (address => uint) accntIndexArr;\n  mapping (address => EnerConsumption) enerConsumptions;\n  mapping (address => uint) consBalance;\n  mapping (address => ConsTransaction) transactions;\n\n  address[] public consAccntList;\n\n  function EnergyConsumption() {\n    // position 0 flag invalid address\n    consAccntList.push(0x0);\n  }\n\n  /*\n  * Registration\n  */\n\n  function setConsumer(string _owner, string _deviceType, uint32 _peakPowerPos, uint32 _peakPowerNeg, uint32 _latitude, uint32 _longitude, uint32 _voltageLevel, string _location, string _installDate) {\n    if (!consAccntsArr(tx.origin)){\n      // mapping address to index\n      accntIndexArr[tx.origin] = consAccntList.length;\n      consumers[tx.origin] = Consumer(_owner, _deviceType, _peakPowerPos, _peakPowerNeg, _latitude, _longitude, _voltageLevel, _location, _installDate);\n      consAccntList.push(tx.origin) -1;\n      ConsumerRegs(tx.origin, _owner, _deviceType, _peakPowerPos, _peakPowerNeg, _latitude, _longitude, _voltageLevel, _location, _installDate);\n    }\n  }\n\n  // check if an address is already registered or not\n  function consAccntsArr(address consumerAddr) constant returns (bool) {\n    // address 0x0 is not valid if pos 0 is not in the array\n    if (consumerAddr != 0x0 && accntIndexArr[consumerAddr] > 0) {\n      return true;\n    }\n    return false;\n  }\n\n  // getting registration details\n  function getConsumer() constant returns (address, string, string, uint32, uint32, uint32, uint32, uint32, string, string){\n    return (tx.origin, consumers[tx.origin].owner, consumers[tx.origin].deviceType, consumers[tx.origin].peakPowerPos, consumers[tx.origin].peakPowerNeg, consumers[tx.origin].latitude, consumers[tx.origin].longitude, consumers[tx.origin].voltageLevel, consumers[tx.origin].location, consumers[tx.origin].installDate);\n  }\n\n  // get registation details for individual accounts\n  function getConsAccntDetails(address _consAccntAddr) constant returns (string, string, uint32, string, uint32, uint32, string){\n    return (consumers[_consAccntAddr].owner, consumers[_consAccntAddr].deviceType, consumers[_consAccntAddr].peakPowerPos, consumers[_consAccntAddr].location, consumers[_consAccntAddr].latitude, consumers[_consAccntAddr].longitude, consumers[_consAccntAddr].installDate);\n  }\n\n  // consumer accounts list\n  function getConsAccntsList() constant returns (address[]) {\n    return consAccntList;\n  }\n\n  // count for consumer accounts\n  function countConsumers() constant returns (uint) {\n    return (consAccntList.length) - 1;\n  }\n\n  /*\n  * Energy mapping setup\n  */\n\n  // getting energy time and amount\n  function setEnerConsumption(uint32 _enerValue) {\n    // check if consumer already exist\n    if (consAccntsArr(tx.origin)){\n      enerConsumptions[tx.origin] = EnerConsumption(now, _enerValue);\n\n      // total energy balance\n      consBalance[tx.origin] += _enerValue;\n\n      // indidual accounts transaction history\n      transactions[tx.origin].txTime.push(now) -1;\n      transactions[tx.origin].txValue.push(_enerValue) -1;\n      transactions[tx.origin].blockNumber.push(block.number);\n      transactions[tx.origin].blockHash.push(block.blockhash(block.number -1));\n      transactions[tx.origin].txGasPrice.push(tx.gasprice) -1;\n    }\n\n    EnerConsumptionEvent(tx.origin, now, _enerValue);\n\n  }\n\n  function getEnerConsumption()constant returns(address, uint, uint32){\n    return (tx.origin, enerConsumptions[tx.origin].enerTime, enerConsumptions[tx.origin].enerValue);\n  }\n\n  // getting energy consumption details for individual accounts\n\n  function getConsEnerConsumption(address _consAccntAddr)constant returns (address, uint[], uint32[], uint[], bytes32[], uint[]){\n    return (_consAccntAddr, transactions[_consAccntAddr].txTime, transactions[_consAccntAddr].txValue, transactions[_consAccntAddr].blockNumber, transactions[_consAccntAddr].blockHash, transactions[_consAccntAddr].txGasPrice);\n  }\n\n  // retrieving individula consumer total amount of energy consumed\n\n  function getConsBalance(address _consAccntAddr)constant returns (uint){\n    return (consBalance[_consAccntAddr]);\n  }\n\n}\n\n",
  "sourcePath": "/Users/m.pohland/Energy-Certification/truffle_compilation/contracts/EnergyBrowser.sol",
  "compiler": {
    "name": "solc",
    "version": "0.4.19+commit.c4cbbb05.Emscripten.clang"
  },
  "schemaVersion": "2.0.0",
  "updatedAt": "2018-06-07T11:15:15.885Z"
}